{
  "abi": [
    {
      "inputs": [
        {
          "internalType": "address",
          "name": "authorizedCollateral_",
          "type": "address"
        },
        {
          "internalType": "address",
          "name": "adapter_",
          "type": "address"
        },
        {
          "internalType": "bytes32",
          "name": "adapterName_",
          "type": "bytes32"
        },
        {
          "internalType": "address",
          "name": "treasury_",
          "type": "address"
        },
        {
          "internalType": "address",
          "name": "systemCoin_",
          "type": "address"
        },
        {
          "internalType": "address",
          "name": "governance_",
          "type": "address"
        },
        {
          "internalType": "uint256",
          "name": "maxDeposit_",
          "type": "uint256"
        },
        {
          "internalType": "uint256",
          "name": "debtCeiling_",
          "type": "uint256"
        },
        {
          "internalType": "uint256",
          "name": "basisFee_",
          "type": "uint256"
        }
      ],
      "stateMutability": "nonpayable",
      "type": "constructor"
    },
    {
      "inputs": [],
      "name": "AlreadyAuthorized",
      "type": "error"
    },
    {
      "inputs": [],
      "name": "DebtCeiling",
      "type": "error"
    },
    {
      "inputs": [],
      "name": "FailedDelegateCall",
      "type": "error"
    },
    {
      "inputs": [],
      "name": "FailedDeploy",
      "type": "error"
    },
    {
      "inputs": [],
      "name": "FailedTransfer",
      "type": "error"
    },
    {
      "inputs": [],
      "name": "InvalidBalance",
      "type": "error"
    },
    {
      "inputs": [],
      "name": "InvalidDebt",
      "type": "error"
    },
    {
      "inputs": [],
      "name": "InvalidDeposit",
      "type": "error"
    },
    {
      "inputs": [],
      "name": "InvalidFee",
      "type": "error"
    },
    {
      "inputs": [],
      "name": "InvalidTrade",
      "type": "error"
    },
    {
      "inputs": [],
      "name": "NoAdapter",
      "type": "error"
    },
    {
      "inputs": [],
      "name": "NotAuthorized",
      "type": "error"
    },
    {
      "inputs": [],
      "name": "Unauthorized",
      "type": "error"
    },
    {
      "anonymous": false,
      "inputs": [
        {
          "indexed": true,
          "internalType": "bytes32",
          "name": "adapterName",
          "type": "bytes32"
        },
        {
          "indexed": true,
          "internalType": "address",
          "name": "adapter",
          "type": "address"
        },
        {
          "indexed": true,
          "internalType": "address",
          "name": "authorized",
          "type": "address"
        }
      ],
      "name": "AddAdapter",
      "type": "event"
    },
    {
      "anonymous": false,
      "inputs": [
        {
          "indexed": false,
          "internalType": "address",
          "name": "_account",
          "type": "address"
        }
      ],
      "name": "AddAuthorization",
      "type": "event"
    },
    {
      "anonymous": false,
      "inputs": [
        {
          "indexed": true,
          "internalType": "uint256",
          "name": "amount",
          "type": "uint256"
        }
      ],
      "name": "BurnBalance",
      "type": "event"
    },
    {
      "anonymous": false,
      "inputs": [
        {
          "indexed": true,
          "internalType": "address",
          "name": "newTreasury",
          "type": "address"
        },
        {
          "indexed": true,
          "internalType": "address",
          "name": "authorized",
          "type": "address"
        }
      ],
      "name": "ChangeTreasury",
      "type": "event"
    },
    {
      "anonymous": false,
      "inputs": [
        {
          "indexed": true,
          "internalType": "uint256",
          "name": "amount",
          "type": "uint256"
        },
        {
          "indexed": true,
          "internalType": "uint256",
          "name": "burnAmount",
          "type": "uint256"
        },
        {
          "indexed": true,
          "internalType": "address",
          "name": "target",
          "type": "address"
        },
        {
          "indexed": false,
          "internalType": "bytes",
          "name": "returnData",
          "type": "bytes"
        }
      ],
      "name": "Contract",
      "type": "event"
    },
    {
      "anonymous": false,
      "inputs": [
        {
          "indexed": true,
          "internalType": "int256",
          "name": "previousDebt",
          "type": "int256"
        },
        {
          "indexed": true,
          "internalType": "int256",
          "name": "newDebt",
          "type": "int256"
        },
        {
          "indexed": true,
          "internalType": "uint256",
          "name": "previousBalance",
          "type": "uint256"
        },
        {
          "indexed": false,
          "internalType": "uint256",
          "name": "newBalance",
          "type": "uint256"
        }
      ],
      "name": "ContractDebt",
      "type": "event"
    },
    {
      "anonymous": false,
      "inputs": [
        {
          "indexed": true,
          "internalType": "uint256",
          "name": "debtCeiling",
          "type": "uint256"
        }
      ],
      "name": "DebtCeilingChange",
      "type": "event"
    },
    {
      "anonymous": false,
      "inputs": [
        {
          "indexed": true,
          "internalType": "uint256",
          "name": "amount",
          "type": "uint256"
        }
      ],
      "name": "Deposit",
      "type": "event"
    },
    {
      "anonymous": false,
      "inputs": [
        {
          "indexed": true,
          "internalType": "uint256",
          "name": "amount",
          "type": "uint256"
        },
        {
          "indexed": true,
          "internalType": "uint256",
          "name": "burnAmount",
          "type": "uint256"
        },
        {
          "indexed": true,
          "internalType": "address",
          "name": "target",
          "type": "address"
        },
        {
          "indexed": false,
          "internalType": "bytes",
          "name": "returnData",
          "type": "bytes"
        }
      ],
      "name": "Expand",
      "type": "event"
    },
    {
      "anonymous": false,
      "inputs": [
        {
          "indexed": true,
          "internalType": "int256",
          "name": "previousDebt",
          "type": "int256"
        },
        {
          "indexed": true,
          "internalType": "int256",
          "name": "newDebt",
          "type": "int256"
        },
        {
          "indexed": true,
          "internalType": "uint256",
          "name": "previousBalance",
          "type": "uint256"
        },
        {
          "indexed": false,
          "internalType": "uint256",
          "name": "newBalance",
          "type": "uint256"
        }
      ],
      "name": "ExpandDebt",
      "type": "event"
    },
    {
      "anonymous": false,
      "inputs": [
        {
          "indexed": true,
          "internalType": "uint256",
          "name": "newFee",
          "type": "uint256"
        }
      ],
      "name": "KeeperFee",
      "type": "event"
    },
    {
      "anonymous": false,
      "inputs": [
        {
          "indexed": true,
          "internalType": "uint256",
          "name": "amount",
          "type": "uint256"
        },
        {
          "indexed": true,
          "internalType": "address",
          "name": "keeper",
          "type": "address"
        },
        {
          "indexed": true,
          "internalType": "address",
          "name": "token",
          "type": "address"
        }
      ],
      "name": "KeeperFeePaid",
      "type": "event"
    },
    {
      "anonymous": false,
      "inputs": [
        {
          "indexed": true,
          "internalType": "uint256",
          "name": "maxDeposit",
          "type": "uint256"
        }
      ],
      "name": "MaxDeposit",
      "type": "event"
    },
    {
      "anonymous": false,
      "inputs": [
        {
          "indexed": false,
          "internalType": "address",
          "name": "_account",
          "type": "address"
        }
      ],
      "name": "RemoveAuthorization",
      "type": "event"
    },
    {
      "anonymous": false,
      "inputs": [
        {
          "indexed": true,
          "internalType": "address",
          "name": "treasury",
          "type": "address"
        },
        {
          "indexed": true,
          "internalType": "uint256",
          "name": "collateralAmount",
          "type": "uint256"
        },
        {
          "indexed": false,
          "internalType": "uint256",
          "name": "coinAmount",
          "type": "uint256"
        },
        {
          "indexed": true,
          "internalType": "address",
          "name": "authorized",
          "type": "address"
        }
      ],
      "name": "WindDown",
      "type": "event"
    },
    {
      "inputs": [
        {
          "internalType": "uint256",
          "name": "amount",
          "type": "uint256"
        }
      ],
      "name": "_scaleFromSystemCoin",
      "outputs": [
        {
          "internalType": "int256",
          "name": "",
          "type": "int256"
        }
      ],
      "stateMutability": "view",
      "type": "function"
    },
    {
      "inputs": [
        {
          "internalType": "uint256",
          "name": "amount",
          "type": "uint256"
        }
      ],
      "name": "_scaleToSystemCoin",
      "outputs": [
        {
          "internalType": "uint256",
          "name": "",
          "type": "uint256"
        }
      ],
      "stateMutability": "view",
      "type": "function"
    },
    {
      "inputs": [
        {
          "internalType": "bytes32",
          "name": "adapterName_",
          "type": "bytes32"
        },
        {
          "internalType": "address",
          "name": "adapter_",
          "type": "address"
        }
      ],
      "name": "addAdapter",
      "outputs": [],
      "stateMutability": "nonpayable",
      "type": "function"
    },
    {
      "inputs": [
        {
          "internalType": "address",
          "name": "_account",
          "type": "address"
        }
      ],
      "name": "addAuthorization",
      "outputs": [],
      "stateMutability": "nonpayable",
      "type": "function"
    },
    {
      "inputs": [
        {
          "internalType": "address",
          "name": "_account",
          "type": "address"
        }
      ],
      "name": "authorizedAccounts",
      "outputs": [
        {
          "internalType": "bool",
          "name": "_authorized",
          "type": "bool"
        }
      ],
      "stateMutability": "view",
      "type": "function"
    },
    {
      "inputs": [],
      "name": "authorizedAccounts",
      "outputs": [
        {
          "internalType": "address[]",
          "name": "_accounts",
          "type": "address[]"
        }
      ],
      "stateMutability": "view",
      "type": "function"
    },
    {
      "inputs": [],
      "name": "authorizedCollateral",
      "outputs": [
        {
          "internalType": "contract IERC20Metadata",
          "name": "",
          "type": "address"
        }
      ],
      "stateMutability": "view",
      "type": "function"
    },
    {
      "inputs": [],
      "name": "basisFee",
      "outputs": [
        {
          "internalType": "uint256",
          "name": "",
          "type": "uint256"
        }
      ],
      "stateMutability": "view",
      "type": "function"
    },
    {
      "inputs": [
        {
          "internalType": "uint256",
          "name": "newBasisFee",
          "type": "uint256"
        }
      ],
      "name": "changeBasisFee",
      "outputs": [],
      "stateMutability": "nonpayable",
      "type": "function"
    },
    {
      "inputs": [
        {
          "internalType": "uint256",
          "name": "newDebtCeiling",
          "type": "uint256"
        }
      ],
      "name": "changeDebtCeiling",
      "outputs": [],
      "stateMutability": "nonpayable",
      "type": "function"
    },
    {
      "inputs": [
        {
          "internalType": "uint256",
          "name": "newMaxDeposit",
          "type": "uint256"
        }
      ],
      "name": "changeMaxDeposit",
      "outputs": [],
      "stateMutability": "nonpayable",
      "type": "function"
    },
    {
      "inputs": [
        {
          "internalType": "address",
          "name": "newTreasury_",
          "type": "address"
        }
      ],
      "name": "changeTreasury",
      "outputs": [],
      "stateMutability": "nonpayable",
      "type": "function"
    },
    {
      "inputs": [
        {
          "internalType": "bytes32",
          "name": "adapterName",
          "type": "bytes32"
        },
        {
          "internalType": "bytes",
          "name": "data",
          "type": "bytes"
        }
      ],
      "name": "contractAndSell",
      "outputs": [],
      "stateMutability": "nonpayable",
      "type": "function"
    },
    {
      "inputs": [],
      "name": "debtCeiling",
      "outputs": [
        {
          "internalType": "uint256",
          "name": "",
          "type": "uint256"
        }
      ],
      "stateMutability": "view",
      "type": "function"
    },
    {
      "inputs": [
        {
          "internalType": "uint256",
          "name": "amount",
          "type": "uint256"
        }
      ],
      "name": "deposit",
      "outputs": [],
      "stateMutability": "nonpayable",
      "type": "function"
    },
    {
      "inputs": [
        {
          "internalType": "bytes32",
          "name": "adapterName",
          "type": "bytes32"
        },
        {
          "internalType": "bytes",
          "name": "data",
          "type": "bytes"
        },
        {
          "internalType": "uint256",
          "name": "mintAmount",
          "type": "uint256"
        }
      ],
      "name": "expandAndBuy",
      "outputs": [],
      "stateMutability": "nonpayable",
      "type": "function"
    },
    {
      "inputs": [
        {
          "internalType": "bytes32",
          "name": "adapterName_",
          "type": "bytes32"
        }
      ],
      "name": "getAdapter",
      "outputs": [
        {
          "internalType": "address",
          "name": "",
          "type": "address"
        }
      ],
      "stateMutability": "view",
      "type": "function"
    },
    {
      "inputs": [],
      "name": "getDebt",
      "outputs": [
        {
          "internalType": "int256",
          "name": "",
          "type": "int256"
        }
      ],
      "stateMutability": "view",
      "type": "function"
    },
    {
      "inputs": [],
      "name": "getDeposits",
      "outputs": [
        {
          "internalType": "uint256",
          "name": "",
          "type": "uint256"
        }
      ],
      "stateMutability": "view",
      "type": "function"
    },
    {
      "inputs": [],
      "name": "maxDeposit",
      "outputs": [
        {
          "internalType": "uint256",
          "name": "",
          "type": "uint256"
        }
      ],
      "stateMutability": "view",
      "type": "function"
    },
    {
      "inputs": [
        {
          "internalType": "address",
          "name": "_account",
          "type": "address"
        }
      ],
      "name": "removeAuthorization",
      "outputs": [],
      "stateMutability": "nonpayable",
      "type": "function"
    },
    {
      "inputs": [],
      "name": "scalingFactor",
      "outputs": [
        {
          "internalType": "uint256",
          "name": "",
          "type": "uint256"
        }
      ],
      "stateMutability": "view",
      "type": "function"
    },
    {
      "inputs": [],
      "name": "systemCoin",
      "outputs": [
        {
          "internalType": "contract ISystemCoin",
          "name": "",
          "type": "address"
        }
      ],
      "stateMutability": "view",
      "type": "function"
    },
    {
      "inputs": [],
      "name": "windDown",
      "outputs": [],
      "stateMutability": "nonpayable",
      "type": "function"
    }
  ],
  "bytecode": {
    "object": "0x60806040523480156200001157600080fd5b506040516200241e3803806200241e8339810160408190526200003491620003f9565b836200004081620002ff565b506001600160a01b03891615806200005f57506001600160a01b038816155b806200007257506001600160a01b038516155b806200008557506001600160a01b038616155b806200009857506001600160a01b038416155b80620000ab57506001600160a01b038516155b80620000b5575086155b15620000d457604051632081741d60e11b815260040160405180910390fd5b6000878152600b602090815260409182902080546001600160a01b03808d166001600160a01b031992831617909255600280548e8416908316811790915560058054938b1693909216929092179055825163313ce56760e01b81529251909263313ce5679260048083019391928290030181865afa1580156200015b573d6000803e3d6000fd5b505050506040513d601f19601f8201168201806040525081019062000181919062000490565b600560009054906101000a90046001600160a01b03166001600160a01b031663313ce5676040518163ffffffff1660e01b8152600401602060405180830381865afa158015620001d5573d6000803e3d6000fd5b505050506040513d601f19601f82011682018060405250810190620001fb919062000490565b620002079190620004bc565b60ff16600355600480546001600160a01b0319166001600160a01b03881617905560098390556007829055600a81905560405181907f61338483b425f29a9522a1c6c85d008a885da1bf89fcbf11c657a0df2b314ad390600090a260405182907f9a48593c735618d592f349d32c1d2e5427309bb2e68d3fc8c44dbf9f8338a1aa90600090a260405183907f95faf97b7c50ed900a56e8f01d1ec0ec73c2c4b6dad0e7f00f223b1a38ab41c990600090a260405133906001600160a01b038a169089907fd4de8c543723a791a3d6e032e1bbda3d8df3d8261dbfe13999ade5fd0a6862c490600090a4505050505050505050620004e4565b6200030c6000826200036a565b1562000351576040516001600160a01b03821681527f599a298163e1678bb1c676052a8930bf0b8a1261ed6e01b8a2391e55f70001029060200160405180910390a150565b604051633013e93f60e11b815260040160405180910390fd5b600062000381836001600160a01b0384166200038a565b90505b92915050565b6000818152600183016020526040812054620003d35750815460018181018455600084815260208082209093018490558454848252828601909352604090209190915562000384565b50600062000384565b80516001600160a01b0381168114620003f457600080fd5b919050565b60008060008060008060008060006101208a8c0312156200041957600080fd5b620004248a620003dc565b98506200043460208b01620003dc565b975060408a015196506200044b60608b01620003dc565b95506200045b60808b01620003dc565b94506200046b60a08b01620003dc565b935060c08a0151925060e08a015191506101008a015190509295985092959850929598565b600060208284031215620004a357600080fd5b815160ff81168114620004b557600080fd5b9392505050565b60ff82811682821603908111156200038457634e487b7160e01b600052601160045260246000fd5b611f2a80620004f46000396000f3fe608060405234801561001057600080fd5b50600436106101985760003560e01c80639692407e116100e3578063b6b55f251161008c578063e1c84ea411610066578063e1c84ea41461037c578063ed3437f814610385578063ee5ddaf71461038e57600080fd5b8063b6b55f251461034e578063b85c514514610361578063bef93cdb1461036957600080fd5b8063a7e94455116100bd578063a7e9445514610308578063a9212b5b14610328578063b14f2a391461033b57600080fd5b80639692407e146102d9578063971e1a66146102ec57806397a7c6de146102f557600080fd5b80635b5c8234116101455780636b149d871161011f5780636b149d87146102885780638272e1381461029057806394f3f81d146102c657600080fd5b80635b5c8234146102595780636083e59a1461026c578063646c87731461027557600080fd5b80632e391876116101765780632e3918761461021c57806335b281531461023157806353fefd7d1461024657600080fd5b8063149716691461019d57806314a6bf0f146101e757806324ba5884146101f9575b600080fd5b6002546101bd9073ffffffffffffffffffffffffffffffffffffffff1681565b60405173ffffffffffffffffffffffffffffffffffffffff90911681526020015b60405180910390f35b6006545b6040519081526020016101de565b61020c6102073660046119ea565b6103a1565b60405190151581526020016101de565b6102246103b2565b6040516101de9190611a05565b61024461023f3660046119ea565b6103c3565b005b610244610254366004611a5f565b61040e565b610244610267366004611a5f565b610480565b6101eb60095481565b610244610283366004611ac1565b61052e565b6008546101eb565b6101bd61029e366004611a5f565b6000908152600b602052604090205473ffffffffffffffffffffffffffffffffffffffff1690565b6102446102d43660046119ea565b61071d565b6102446102e7366004611b0d565b610765565b6101eb600a5481565b610244610303366004611a5f565b610a32565b6005546101bd9073ffffffffffffffffffffffffffffffffffffffff1681565b610244610336366004611b60565b610aa4565b6102446103493660046119ea565b610b61565b61024461035c366004611a5f565b610c12565b610244610e1a565b6101eb610377366004611a5f565b6110d0565b6101eb60075481565b6101eb60035481565b6101eb61039c366004611a5f565b6110f8565b60006103ac82611120565b92915050565b60606103be600061114d565b905090565b6103cc33611120565b610402576040517f82b4290000000000000000000000000000000000000000000000000000000000815260040160405180910390fd5b61040b81611161565b50565b61041733611120565b61044d576040517f82b4290000000000000000000000000000000000000000000000000000000000815260040160405180910390fd5b600981905560405181907f95faf97b7c50ed900a56e8f01d1ec0ec73c2c4b6dad0e7f00f223b1a38ab41c990600090a250565b61048933611120565b6104bf576040517f82b4290000000000000000000000000000000000000000000000000000000000815260040160405180910390fd5b6127108111156104fb576040517f58d620b300000000000000000000000000000000000000000000000000000000815260040160405180910390fd5b600a81905560405181907f61338483b425f29a9522a1c6c85d008a885da1bf89fcbf11c657a0df2b314ad390600090a250565b6000838152600b602052604090205473ffffffffffffffffffffffffffffffffffffffff168061058a576040517f94bd2f9300000000000000000000000000000000000000000000000000000000815260040160405180910390fd5b60008060006105976111f0565b9250925092506000808573ffffffffffffffffffffffffffffffffffffffff1688886040516105c7929190611b8c565b600060405180830381855af49150503d8060008114610602576040519150601f19603f3d011682016040523d82523d6000602084013e610607565b606091505b509150915081610643576040517f736436ba00000000000000000000000000000000000000000000000000000000815260040160405180910390fd5b600080600080610653878a611381565b6005549397509195509350915061068190859073ffffffffffffffffffffffffffffffffffffffff166114ac565b87828a7f0f1e78c5cdc9ccb8b64448da0cfc4a1ba4619ec16438199c06c32a2739dd8c2b866040516106b591815260200190565b60405180910390a48973ffffffffffffffffffffffffffffffffffffffff168160007fb4b33d098865ae894a0a70f2095027e7ef519a4799275c87f5abd2c556854ddf886040516107069190611b9c565b60405180910390a450505050505050505050505050565b61072633611120565b61075c576040517f82b4290000000000000000000000000000000000000000000000000000000000815260040160405180910390fd5b61040b816115b4565b6000848152600b602052604090205473ffffffffffffffffffffffffffffffffffffffff16806107c1576040517f94bd2f9300000000000000000000000000000000000000000000000000000000815260040160405180910390fd5b60008060006107ce6111f0565b92509250925060006107df866110d0565b6107e99085611c37565b9050600754811315610827576040517f0e2d967900000000000000000000000000000000000000000000000000000000815260040160405180910390fd5b6005546040517f40c10f190000000000000000000000000000000000000000000000000000000081523060048201526024810188905273ffffffffffffffffffffffffffffffffffffffff909116906340c10f1990604401600060405180830381600087803b15801561089957600080fd5b505af11580156108ad573d6000803e3d6000fd5b505050506000808673ffffffffffffffffffffffffffffffffffffffff168a8a6040516108db929190611b8c565b600060405180830381855af49150503d8060008114610916576040519150601f19603f3d011682016040523d82523d6000602084013e61091b565b606091505b509150915081610957576040517f736436ba00000000000000000000000000000000000000000000000000000000815260040160405180910390fd5b6000806000806109678888611381565b6002549397509195509350915061099590859073ffffffffffffffffffffffffffffffffffffffff166114ac565b88828b7f9cfcca7aa746531d5b9798b02f3cb830b976fa266bce3a0a5e8636ffb5d23640866040516109c991815260200190565b60405180910390a48a73ffffffffffffffffffffffffffffffffffffffff16818d7f6d2856d846c0af3bb44c604fbeab0e346416cb609a48931346b315372816d01788604051610a199190611b9c565b60405180910390a4505050505050505050505050505050565b610a3b33611120565b610a71576040517f82b4290000000000000000000000000000000000000000000000000000000000815260040160405180910390fd5b600781905560405181907f9a48593c735618d592f349d32c1d2e5427309bb2e68d3fc8c44dbf9f8338a1aa90600090a250565b610aad33611120565b610ae3576040517f82b4290000000000000000000000000000000000000000000000000000000000815260040160405180910390fd5b6000828152600b602052604080822080547fffffffffffffffffffffffff00000000000000000000000000000000000000001673ffffffffffffffffffffffffffffffffffffffff85169081179091559051339285917fd4de8c543723a791a3d6e032e1bbda3d8df3d8261dbfe13999ade5fd0a6862c49190a45050565b610b6a33611120565b610ba0576040517f82b4290000000000000000000000000000000000000000000000000000000000815260040160405180910390fd5b600480547fffffffffffffffffffffffff00000000000000000000000000000000000000001673ffffffffffffffffffffffffffffffffffffffff83169081179091556040513391907fd61f9c9cda6dbf4d6540a8bc48cc55e51105333daa79c5fc3fde780d820bea5f90600090a350565b600854600954610c228284611c5f565b1115610c5a576040517fb2e532de00000000000000000000000000000000000000000000000000000000815260040160405180910390fd5b610c648282611c5f565b6008556002546040517f23b872dd0000000000000000000000000000000000000000000000000000000081523360048201523060248201526044810184905260009173ffffffffffffffffffffffffffffffffffffffff16906323b872dd906064016020604051808303816000875af1158015610ce5573d6000803e3d6000fd5b505050506040513d601f19601f82011682018060405250810190610d099190611c72565b905080610d42576040517fbfa871c500000000000000000000000000000000000000000000000000000000815260040160405180910390fd5b82600654610d509190611c37565b6006556000610d5e846110f8565b6005546040517f40c10f190000000000000000000000000000000000000000000000000000000081523360048201526024810183905291925073ffffffffffffffffffffffffffffffffffffffff16906340c10f1990604401600060405180830381600087803b158015610dd157600080fd5b505af1158015610de5573d6000803e3d6000fd5b50506040518692507f4d6ce1e535dbade1c23defba91e23b8f791ce5edc0cc320257a2b364e4e384269150600090a250505050565b610e2333611120565b610e59576040517f82b4290000000000000000000000000000000000000000000000000000000000815260040160405180910390fd5b600654600080821315610e98576040517fd49e030600000000000000000000000000000000000000000000000000000000815260040160405180910390fd5b6000821215610f3f57610eaa8261163c565b600554600480546040517f40c10f1900000000000000000000000000000000000000000000000000000000815273ffffffffffffffffffffffffffffffffffffffff91821692810192909252602482018490529293509116906340c10f1990604401600060405180830381600087803b158015610f2657600080fd5b505af1158015610f3a573d6000803e3d6000fd5b505050505b6002546040517f70a0823100000000000000000000000000000000000000000000000000000000815230600482015260009173ffffffffffffffffffffffffffffffffffffffff16906370a0823190602401602060405180830381865afa158015610fae573d6000803e3d6000fd5b505050506040513d601f19601f82011682018060405250810190610fd29190611c94565b600254600480546040517fa9059cbb00000000000000000000000000000000000000000000000000000000815273ffffffffffffffffffffffffffffffffffffffff918216928101929092526024820184905292935091169063a9059cbb906044016020604051808303816000875af1158015611053573d6000803e3d6000fd5b505050506040513d601f19601f820116820180604052508101906110779190611c72565b506004546040518381523391839173ffffffffffffffffffffffffffffffffffffffff909116907f31b53197323d9dfa1feb587c8f8d6b413c92ec89a1dd682a5147e978fc7a19b19060200160405180910390a4505050565b60006003546000036110e0575090565b6003546110ee90600a611dcd565b6103ac9083611dd9565b6000600354600003611108575090565b60035461111690600a611dcd565b6103ac9083611e14565b73ffffffffffffffffffffffffffffffffffffffff811660009081526001602052604081205415156103ac565b6060600061115a8361165d565b9392505050565b61116c6000826116b9565b156111be5760405173ffffffffffffffffffffffffffffffffffffffff821681527f599a298163e1678bb1c676052a8930bf0b8a1261ed6e01b8a2391e55f7000102906020015b60405180910390a150565b6040517f6027d27e00000000000000000000000000000000000000000000000000000000815260040160405180910390fd5b6006546002546040517f70a08231000000000000000000000000000000000000000000000000000000008152306004820152600091829173ffffffffffffffffffffffffffffffffffffffff909116906370a0823190602401602060405180830381865afa158015611266573d6000803e3d6000fd5b505050506040513d601f19601f8201168201806040525081019061128a9190611c94565b6005546040517f70a0823100000000000000000000000000000000000000000000000000000000815230600482015291935060009173ffffffffffffffffffffffffffffffffffffffff909116906370a0823190602401602060405180830381865afa1580156112fe573d6000803e3d6000fd5b505050506040513d601f19601f820116820180604052508101906113229190611c94565b905060008413156113525783611337826110d0565b6113419085611c5f565b61134b9190611e2b565b915061137b565b61135b8461163c565b611364826110d0565b61136e9085611c5f565b6113789190611c5f565b91505b50909192565b6002546040517f70a0823100000000000000000000000000000000000000000000000000000000815230600482015260009182918291829173ffffffffffffffffffffffffffffffffffffffff909116906370a0823190602401602060405180830381865afa1580156113f8573d6000803e3d6000fd5b505050506040513d601f19601f8201168201806040525081019061141c9190611c94565b9350611427856116db565b9092509050600080831315611447576114408386611e2b565b905061145d565b6114508361163c565b61145a9086611c5f565b90505b868111611496576040517fd69b537900000000000000000000000000000000000000000000000000000000815260040160405180910390fd5b6114a08782611e2b565b93505092959194509250565b6000612710600a54846114bf9190611e14565b6114c99190611dd9565b905080156115af576040517fa9059cbb0000000000000000000000000000000000000000000000000000000081523360048201526024810182905273ffffffffffffffffffffffffffffffffffffffff83169063a9059cbb906044016020604051808303816000875af1158015611544573d6000803e3d6000fd5b505050506040513d601f19601f820116820180604052508101906115689190611c72565b5060405173ffffffffffffffffffffffffffffffffffffffff831690339083907fb80c0c668008729f951d799c83a90d3199028accfd589f8104bec0e73431ccef90600090a45b505050565b6115bf600082611856565b1561160a5760405173ffffffffffffffffffffffffffffffffffffffff821681527f8834a87e641e9716be4f34527af5d23e11624f1ddeefede6ad75a9acfc31b903906020016111b3565b6040517fea8e4eb500000000000000000000000000000000000000000000000000000000815260040160405180910390fd5b6000808212156116545761164f82611e3e565b611656565b815b5090919050565b6060816000018054806020026020016040519081016040528092919081815260200182805480156116ad57602002820191906000526020600020905b815481526020019060010190808311611699575b50505050509050919050565b600061115a8373ffffffffffffffffffffffffffffffffffffffff8416611878565b6005546040517f70a08231000000000000000000000000000000000000000000000000000000008152306004820152600091829173ffffffffffffffffffffffffffffffffffffffff909116906370a0823190602401602060405180830381865afa15801561174e573d6000803e3d6000fd5b505050506040513d601f19601f820116820180604052508101906117729190611c94565b905080600003611789575050600681905590600090565b611792816110d0565b61179c9084611e76565b6005546040517f42966c680000000000000000000000000000000000000000000000000000000081526004810184905291935073ffffffffffffffffffffffffffffffffffffffff16906342966c6890602401600060405180830381600087803b15801561180957600080fd5b505af115801561181d573d6000803e3d6000fd5b50505060068390555060405181907f0e31a7b5c5ffe3facf498fa2659f7559aeb279d6975673bea1f8a6c459571cde90600090a2915091565b600061115a8373ffffffffffffffffffffffffffffffffffffffff84166118c7565b60008181526001830160205260408120546118bf575081546001818101845560008481526020808220909301849055845484825282860190935260409020919091556103ac565b5060006103ac565b600081815260018301602052604081205480156119b05760006118eb600183611e2b565b85549091506000906118ff90600190611e2b565b905081811461196457600086600001828154811061191f5761191f611e96565b906000526020600020015490508087600001848154811061194257611942611e96565b6000918252602080832090910192909255918252600188019052604090208390555b855486908061197557611975611ec5565b6001900381819060005260206000200160009055905585600101600086815260200190815260200160002060009055600193505050506103ac565b60009150506103ac565b5092915050565b803573ffffffffffffffffffffffffffffffffffffffff811681146119e557600080fd5b919050565b6000602082840312156119fc57600080fd5b61115a826119c1565b6020808252825182820181905260009190848201906040850190845b81811015611a5357835173ffffffffffffffffffffffffffffffffffffffff1683529284019291840191600101611a21565b50909695505050505050565b600060208284031215611a7157600080fd5b5035919050565b60008083601f840112611a8a57600080fd5b50813567ffffffffffffffff811115611aa257600080fd5b602083019150836020828501011115611aba57600080fd5b9250929050565b600080600060408486031215611ad657600080fd5b83359250602084013567ffffffffffffffff811115611af457600080fd5b611b0086828701611a78565b9497909650939450505050565b60008060008060608587031215611b2357600080fd5b84359350602085013567ffffffffffffffff811115611b4157600080fd5b611b4d87828801611a78565b9598909750949560400135949350505050565b60008060408385031215611b7357600080fd5b82359150611b83602084016119c1565b90509250929050565b8183823760009101908152919050565b600060208083528351808285015260005b81811015611bc957858101830151858201604001528201611bad565b5060006040828601015260407fffffffffffffffffffffffffffffffffffffffffffffffffffffffffffffffe0601f8301168501019250505092915050565b7f4e487b7100000000000000000000000000000000000000000000000000000000600052601160045260246000fd5b8082018281126000831280158216821582161715611c5757611c57611c08565b505092915050565b808201808211156103ac576103ac611c08565b600060208284031215611c8457600080fd5b8151801515811461115a57600080fd5b600060208284031215611ca657600080fd5b5051919050565b600181815b80851115611d0657817fffffffffffffffffffffffffffffffffffffffffffffffffffffffffffffffff04821115611cec57611cec611c08565b80851615611cf957918102915b93841c9390800290611cb2565b509250929050565b600082611d1d575060016103ac565b81611d2a575060006103ac565b8160018114611d405760028114611d4a57611d66565b60019150506103ac565b60ff841115611d5b57611d5b611c08565b50506001821b6103ac565b5060208310610133831016604e8410600b8410161715611d89575081810a6103ac565b611d938383611cad565b807fffffffffffffffffffffffffffffffffffffffffffffffffffffffffffffffff04821115611dc557611dc5611c08565b029392505050565b600061115a8383611d0e565b600082611e0f577f4e487b7100000000000000000000000000000000000000000000000000000000600052601260045260246000fd5b500490565b80820281158282048414176103ac576103ac611c08565b818103818111156103ac576103ac611c08565b60007f80000000000000000000000000000000000000000000000000000000000000008203611e6f57611e6f611c08565b5060000390565b81810360008312801583831316838312821617156119ba576119ba611c08565b7f4e487b7100000000000000000000000000000000000000000000000000000000600052603260045260246000fd5b7f4e487b7100000000000000000000000000000000000000000000000000000000600052603160045260246000fdfea26469706673582212207e16dba2638c5c4d65e89b9af686415f85212d04dfd779a77f42cd529706004f64736f6c63430008130033",
    "linkReferences": {}
  },
  "methodIdentifiers": {
    "_scaleFromSystemCoin(uint256)": "bef93cdb",
    "_scaleToSystemCoin(uint256)": "ee5ddaf7",
    "addAdapter(bytes32,address)": "a9212b5b",
    "addAuthorization(address)": "35b28153",
    "authorizedAccounts()": "2e391876",
    "authorizedAccounts(address)": "24ba5884",
    "authorizedCollateral()": "14971669",
    "basisFee()": "971e1a66",
    "changeBasisFee(uint256)": "5b5c8234",
    "changeDebtCeiling(uint256)": "97a7c6de",
    "changeMaxDeposit(uint256)": "53fefd7d",
    "changeTreasury(address)": "b14f2a39",
    "contractAndSell(bytes32,bytes)": "646c8773",
    "debtCeiling()": "e1c84ea4",
    "deposit(uint256)": "b6b55f25",
    "expandAndBuy(bytes32,bytes,uint256)": "9692407e",
    "getAdapter(bytes32)": "8272e138",
    "getDebt()": "14a6bf0f",
    "getDeposits()": "6b149d87",
    "maxDeposit()": "6083e59a",
    "removeAuthorization(address)": "94f3f81d",
    "scalingFactor()": "ed3437f8",
    "systemCoin()": "a7e94455",
    "windDown()": "b85c5145"
  },
  "id": 29
}